{
  "_format": "hh-sol-artifact-1",
  "contractName": "MicroTune",
  "sourceName": "contracts/MicroTune.sol",
  "abi": [
    {
      "inputs": [
        {
          "internalType": "address",
          "name": "_usdc",
          "type": "address"
        },
        {
          "internalType": "uint256",
          "name": "_initialPrice",
          "type": "uint256"
        }
      ],
      "stateMutability": "nonpayable",
      "type": "constructor"
    },
    {
      "inputs": [],
      "name": "DustTransferFailed",
      "type": "error"
    },
    {
      "inputs": [],
      "name": "EmptyTitle",
      "type": "error"
    },
    {
      "inputs": [],
      "name": "InvalidShare",
      "type": "error"
    },
    {
      "inputs": [],
      "name": "InvalidSharesTotal",
      "type": "error"
    },
    {
      "inputs": [],
      "name": "LengthMismatch",
      "type": "error"
    },
    {
      "inputs": [],
      "name": "NoBeneficiaries",
      "type": "error"
    },
    {
      "inputs": [],
      "name": "NotAuthorized",
      "type": "error"
    },
    {
      "inputs": [
        {
          "internalType": "address",
          "name": "owner",
          "type": "address"
        }
      ],
      "name": "OwnableInvalidOwner",
      "type": "error"
    },
    {
      "inputs": [
        {
          "internalType": "address",
          "name": "account",
          "type": "address"
        }
      ],
      "name": "OwnableUnauthorizedAccount",
      "type": "error"
    },
    {
      "inputs": [],
      "name": "PaymentFailed",
      "type": "error"
    },
    {
      "inputs": [],
      "name": "ReentrancyGuardReentrantCall",
      "type": "error"
    },
    {
      "inputs": [],
      "name": "SplitFailed",
      "type": "error"
    },
    {
      "inputs": [],
      "name": "UnknownTrack",
      "type": "error"
    },
    {
      "inputs": [],
      "name": "ZeroAddress",
      "type": "error"
    },
    {
      "inputs": [],
      "name": "ZeroPrice",
      "type": "error"
    },
    {
      "anonymous": false,
      "inputs": [
        {
          "indexed": true,
          "internalType": "uint256",
          "name": "trackId",
          "type": "uint256"
        },
        {
          "indexed": true,
          "internalType": "address",
          "name": "listener",
          "type": "address"
        },
        {
          "indexed": false,
          "internalType": "uint256",
          "name": "amount",
          "type": "uint256"
        },
        {
          "indexed": false,
          "internalType": "uint256",
          "name": "totalListens",
          "type": "uint256"
        }
      ],
      "name": "Listened",
      "type": "event"
    },
    {
      "anonymous": false,
      "inputs": [
        {
          "indexed": true,
          "internalType": "address",
          "name": "previousOwner",
          "type": "address"
        },
        {
          "indexed": true,
          "internalType": "address",
          "name": "newOwner",
          "type": "address"
        }
      ],
      "name": "OwnershipTransferred",
      "type": "event"
    },
    {
      "anonymous": false,
      "inputs": [
        {
          "indexed": true,
          "internalType": "uint256",
          "name": "trackId",
          "type": "uint256"
        },
        {
          "indexed": true,
          "internalType": "address",
          "name": "listener",
          "type": "address"
        },
        {
          "indexed": true,
          "internalType": "address",
          "name": "beneficiary",
          "type": "address"
        },
        {
          "indexed": false,
          "internalType": "uint256",
          "name": "amount",
          "type": "uint256"
        }
      ],
      "name": "PaymentSplit",
      "type": "event"
    },
    {
      "anonymous": false,
      "inputs": [
        {
          "indexed": true,
          "internalType": "uint256",
          "name": "trackId",
          "type": "uint256"
        },
        {
          "indexed": true,
          "internalType": "address",
          "name": "artist",
          "type": "address"
        },
        {
          "indexed": false,
          "internalType": "string",
          "name": "title",
          "type": "string"
        },
        {
          "indexed": false,
          "internalType": "string",
          "name": "metadataURI",
          "type": "string"
        },
        {
          "indexed": false,
          "internalType": "uint256",
          "name": "listenPrice",
          "type": "uint256"
        },
        {
          "indexed": false,
          "internalType": "address[]",
          "name": "beneficiaries",
          "type": "address[]"
        },
        {
          "indexed": false,
          "internalType": "uint256[]",
          "name": "shares",
          "type": "uint256[]"
        }
      ],
      "name": "TrackRegistered",
      "type": "event"
    },
    {
      "inputs": [],
      "name": "DEFAULT_PRICE",
      "outputs": [
        {
          "internalType": "uint256",
          "name": "",
          "type": "uint256"
        }
      ],
      "stateMutability": "view",
      "type": "function"
    },
    {
      "inputs": [],
      "name": "TOTAL_BPS",
      "outputs": [
        {
          "internalType": "uint256",
          "name": "",
          "type": "uint256"
        }
      ],
      "stateMutability": "view",
      "type": "function"
    },
    {
      "inputs": [],
      "name": "defaultPrice",
      "outputs": [
        {
          "internalType": "uint256",
          "name": "",
          "type": "uint256"
        }
      ],
      "stateMutability": "view",
      "type": "function"
    },
    {
      "inputs": [
        {
          "internalType": "uint256",
          "name": "",
          "type": "uint256"
        },
        {
          "internalType": "address",
          "name": "",
          "type": "address"
        }
      ],
      "name": "earnedByBeneficiary",
      "outputs": [
        {
          "internalType": "uint256",
          "name": "",
          "type": "uint256"
        }
      ],
      "stateMutability": "view",
      "type": "function"
    },
    {
      "inputs": [
        {
          "internalType": "uint256",
          "name": "trackId",
          "type": "uint256"
        },
        {
          "internalType": "address",
          "name": "beneficiary",
          "type": "address"
        }
      ],
      "name": "getEarned",
      "outputs": [
        {
          "internalType": "uint256",
          "name": "",
          "type": "uint256"
        }
      ],
      "stateMutability": "view",
      "type": "function"
    },
    {
      "inputs": [
        {
          "internalType": "uint256",
          "name": "trackId",
          "type": "uint256"
        },
        {
          "internalType": "uint256",
          "name": "amount",
          "type": "uint256"
        }
      ],
      "name": "getExpectedSplits",
      "outputs": [
        {
          "internalType": "address[]",
          "name": "",
          "type": "address[]"
        },
        {
          "internalType": "uint256[]",
          "name": "",
          "type": "uint256[]"
        }
      ],
      "stateMutability": "view",
      "type": "function"
    },
    {
      "inputs": [
        {
          "internalType": "uint256",
          "name": "trackId",
          "type": "uint256"
        }
      ],
      "name": "getTrack",
      "outputs": [
        {
          "components": [
            {
              "internalType": "uint256",
              "name": "id",
              "type": "uint256"
            },
            {
              "internalType": "address",
              "name": "artist",
              "type": "address"
            },
            {
              "internalType": "string",
              "name": "title",
              "type": "string"
            },
            {
              "internalType": "string",
              "name": "metadataURI",
              "type": "string"
            },
            {
              "internalType": "uint256",
              "name": "listenPrice",
              "type": "uint256"
            },
            {
              "internalType": "uint256",
              "name": "totalListens",
              "type": "uint256"
            },
            {
              "internalType": "uint256",
              "name": "totalRevenue",
              "type": "uint256"
            },
            {
              "internalType": "address[]",
              "name": "beneficiaries",
              "type": "address[]"
            },
            {
              "internalType": "uint256[]",
              "name": "shares",
              "type": "uint256[]"
            }
          ],
          "internalType": "struct MicroTune.Track",
          "name": "",
          "type": "tuple"
        }
      ],
      "stateMutability": "view",
      "type": "function"
    },
    {
      "inputs": [],
      "name": "getTrackCount",
      "outputs": [
        {
          "internalType": "uint256",
          "name": "",
          "type": "uint256"
        }
      ],
      "stateMutability": "view",
      "type": "function"
    },
    {
      "inputs": [
        {
          "internalType": "uint256",
          "name": "trackId",
          "type": "uint256"
        }
      ],
      "name": "listen",
      "outputs": [],
      "stateMutability": "nonpayable",
      "type": "function"
    },
    {
      "inputs": [],
      "name": "nextTrackId",
      "outputs": [
        {
          "internalType": "uint256",
          "name": "",
          "type": "uint256"
        }
      ],
      "stateMutability": "view",
      "type": "function"
    },
    {
      "inputs": [],
      "name": "owner",
      "outputs": [
        {
          "internalType": "address",
          "name": "",
          "type": "address"
        }
      ],
      "stateMutability": "view",
      "type": "function"
    },
    {
      "inputs": [
        {
          "internalType": "string",
          "name": "title",
          "type": "string"
        },
        {
          "internalType": "string",
          "name": "metadataURI",
          "type": "string"
        },
        {
          "internalType": "uint256",
          "name": "listenPrice",
          "type": "uint256"
        },
        {
          "internalType": "address[]",
          "name": "beneficiaries",
          "type": "address[]"
        },
        {
          "internalType": "uint256[]",
          "name": "shares",
          "type": "uint256[]"
        }
      ],
      "name": "registerTrack",
      "outputs": [
        {
          "internalType": "uint256",
          "name": "trackId",
          "type": "uint256"
        }
      ],
      "stateMutability": "nonpayable",
      "type": "function"
    },
    {
      "inputs": [],
      "name": "renounceOwnership",
      "outputs": [],
      "stateMutability": "nonpayable",
      "type": "function"
    },
    {
      "inputs": [
        {
          "internalType": "uint256",
          "name": "newPrice",
          "type": "uint256"
        }
      ],
      "name": "setDefaultPrice",
      "outputs": [],
      "stateMutability": "nonpayable",
      "type": "function"
    },
    {
      "inputs": [
        {
          "internalType": "uint256",
          "name": "trackId",
          "type": "uint256"
        },
        {
          "internalType": "uint256",
          "name": "newPrice",
          "type": "uint256"
        }
      ],
      "name": "setTrackPrice",
      "outputs": [],
      "stateMutability": "nonpayable",
      "type": "function"
    },
    {
      "inputs": [
        {
          "internalType": "uint256",
          "name": "",
          "type": "uint256"
        }
      ],
      "name": "tracks",
      "outputs": [
        {
          "internalType": "uint256",
          "name": "id",
          "type": "uint256"
        },
        {
          "internalType": "address",
          "name": "artist",
          "type": "address"
        },
        {
          "internalType": "string",
          "name": "title",
          "type": "string"
        },
        {
          "internalType": "string",
          "name": "metadataURI",
          "type": "string"
        },
        {
          "internalType": "uint256",
          "name": "listenPrice",
          "type": "uint256"
        },
        {
          "internalType": "uint256",
          "name": "totalListens",
          "type": "uint256"
        },
        {
          "internalType": "uint256",
          "name": "totalRevenue",
          "type": "uint256"
        }
      ],
      "stateMutability": "view",
      "type": "function"
    },
    {
      "inputs": [
        {
          "internalType": "address",
          "name": "newOwner",
          "type": "address"
        }
      ],
      "name": "transferOwnership",
      "outputs": [],
      "stateMutability": "nonpayable",
      "type": "function"
    },
    {
      "inputs": [],
      "name": "usdc",
      "outputs": [
        {
          "internalType": "contract IERC20",
          "name": "",
          "type": "address"
        }
      ],
      "stateMutability": "view",
      "type": "function"
    }
  ],
  "bytecode": "0x60a060405234801561001057600080fd5b50604051611c45380380611c4583398101604081905261002f9161012b565b60017f9b779b17422d0df92223018b32b4d1fa46e071723d6817e2486d003becc55f0055338061007957604051631e4fbdf760e01b81526000600482015260240160405180910390fd5b610082816100db565b506001600160a01b0382166100aa5760405163d92e233d60e01b815260040160405180910390fd5b6001600160a01b038216608052806100c95766b1a2bc2ec500006100cb565b805b6001908155600255506101659050565b600080546001600160a01b038381166001600160a01b0319831681178455604051919092169283917f8be0079c531659141344cd1fd0a4f28419497f9722a3daafe3b4186f6b6457e09190a35050565b6000806040838503121561013e57600080fd5b82516001600160a01b038116811461015557600080fd5b6020939093015192949293505050565b608051611ab06101956000396000818161017c01528181610581015281816107c901526109440152611ab06000f3fe608060405234801561001057600080fd5b50600436106101165760003560e01c80638da5cb5b116100a2578063b9e78bc411610071578063b9e78bc41461026f578063d3cd52bc14610277578063e69e04b314610280578063f2fde38b14610289578063fab853e91461029c57600080fd5b80638da5cb5b1461020457806394ca0f3e14610215578063a2e3458614610240578063a72024c61461026657600080fd5b80633e413bee116100e95780633e413bee14610177578063629058ca146101b65780636d3c7ec5146101d6578063715018a6146101e957806376d1e7b0146101f157600080fd5b80630f874bd81461011b5780631b6c743b146101415780631e5f7e721461014f5780633031db1a14610164575b600080fd5b61012e610129366004611387565b6102bd565b6040519081526020015b60405180910390f35b61012e66b1a2bc2ec5000081565b61016261015d36600461146a565b6104fa565b005b610162610172366004611483565b610a8c565b61019e7f000000000000000000000000000000000000000000000000000000000000000081565b6040516001600160a01b039091168152602001610138565b6101c96101c436600461146a565b610b29565b6040516101389190611562565b6101626101e436600461146a565b610ded565b610162610e1b565b61012e6101ff366004611644565b610e2f565b6000546001600160a01b031661019e565b61012e610223366004611644565b600460209081526000928352604080842090915290825290205481565b61025361024e36600461146a565b610e59565b6040516101389796959493929190611670565b61012e60025481565b61012e610fae565b61012e61271081565b61012e60015481565b6101626102973660046116cc565b610fc4565b6102af6102aa366004611483565b611004565b6040516101389291906116ee565b60008881036102df576040516352ddcdef60e11b815260040160405180910390fd5b600084900361030157604051630a6e387f60e31b815260040160405180910390fd5b838214610324576040516001621398b960e31b0319815260040160405180910390fd5b6000805b838110156103e75784848281811061034257610342611779565b905060200201356000036103695760405163040357dd60e21b815260040160405180910390fd5b600087878381811061037d5761037d611779565b905060200201602081019061039291906116cc565b6001600160a01b0316036103b95760405163d92e233d60e01b815260040160405180910390fd5b8484828181106103cb576103cb611779565b90506020020135826103dd91906117a5565b9150600101610328565b50612710811461040a576040516331ee758760e11b815260040160405180910390fd5b866000036104185760015496505b60028054906000610428836117b8565b9091555060008181526003602052604090208181556001810180546001600160a01b03191633179055909250600281016104638c8e83611870565b50600381016104738a8c83611870565b506004810188905561048960078201888861124d565b506104986008820186866112b0565b50336001600160a01b0316837fbba72581d25a6e821ec26e5b24eaea0daaec9a6fc18aaff52ec6ff15c931ef4d8e8e8e8e8e8e8e8e8e6040516104e399989796959493929190611959565b60405180910390a350509998505050505050505050565b610502611160565b600081815260036020526040902080548214610531576040516334c7fcb160e21b815260040160405180910390fd5b806004015460000361055657604051634dfba02360e01b815260040160405180910390fd5b6004818101546040516323b872dd60e01b8152339281019290925230602483015260448201819052907f00000000000000000000000000000000000000000000000000000000000000006001600160a01b0316906323b872dd906064016020604051808303816000875af11580156105d2573d6000803e3d6000fd5b505050506040513d601f19601f820116820180604052508101906105f69190611a0c565b610613576040516307a4ced160e51b815260040160405180910390fd5b600182600501600082825461062891906117a5565b925050819055508082600601600082825461064391906117a5565b9091555060009050805b600784015481101561071d57600061271085600801838154811061067357610673611779565b9060005260206000200154856106899190611a2e565b6106939190611a45565b9050806000036106a35750610715565b6106ad81846117a5565b9250806004600088815260200190815260200160002060008760070185815481106106da576106da611779565b60009182526020808320909101546001600160a01b031683528201929092526040018120805490919061070e9084906117a5565b9091555050505b60010161064d565b50600061072a8284611a67565b9050801561076e57600085815260046020908152604080832060018801546001600160a01b03168452909152812080548392906107689084906117a5565b90915550505b60005b600785015481101561091257600061271086600801838154811061079757610797611779565b9060005260206000200154866107ad9190611a2e565b6107b79190611a45565b9050806000036107c7575061090a565b7f00000000000000000000000000000000000000000000000000000000000000006001600160a01b031663a9059cbb87600701848154811061080b5761080b611779565b60009182526020909120015460405160e083901b6001600160e01b03191681526001600160a01b039091166004820152602481018490526044016020604051808303816000875af1158015610864573d6000803e3d6000fd5b505050506040513d601f19601f820116820180604052508101906108889190611a0c565b6108a55760405163870ecf4160e01b815260040160405180910390fd5b8560070182815481106108ba576108ba611779565b600091825260209182902001546040518381526001600160a01b039091169133918a917fcf5531f564fe15e1f305fc5d71bfea51b43d9f9d454ffe51a1d8ca4878e77edd910160405180910390a4505b600101610771565b508015610a1957600184015460405163a9059cbb60e01b81526001600160a01b039182166004820152602481018390527f00000000000000000000000000000000000000000000000000000000000000009091169063a9059cbb906044016020604051808303816000875af115801561098f573d6000803e3d6000fd5b505050506040513d601f19601f820116820180604052508101906109b39190611a0c565b6109d057604051630c72ffad60e21b815260040160405180910390fd5b60018401546040518281526001600160a01b0390911690339087907fcf5531f564fe15e1f305fc5d71bfea51b43d9f9d454ffe51a1d8ca4878e77edd9060200160405180910390a45b6005840154604080518581526020810192909252339187917ff0f215f0a686d556f2a9d86a80cd7aff8d5c649269730e690e147a10e3c06fe7910160405180910390a350505050610a8960017f9b779b17422d0df92223018b32b4d1fa46e071723d6817e2486d003becc55f0055565b50565b600082815260036020526040902080548314610abb576040516334c7fcb160e21b815260040160405180910390fd5b60018101546001600160a01b03163314801590610ae357506000546001600160a01b03163314155b15610b015760405163ea8e4eb560e01b815260040160405180910390fd5b81600003610b2257604051634dfba02360e01b815260040160405180910390fd5b6004015550565b610b816040518061012001604052806000815260200160006001600160a01b03168152602001606081526020016060815260200160008152602001600081526020016000815260200160608152602001606081525090565b6000828152600360205260409020548214610baf576040516334c7fcb160e21b815260040160405180910390fd5b6000828152600360209081526040918290208251610120810184528154815260018201546001600160a01b0316928101929092526002810180549293919291840191610bfa906117e7565b80601f0160208091040260200160405190810160405280929190818152602001828054610c26906117e7565b8015610c735780601f10610c4857610100808354040283529160200191610c73565b820191906000526020600020905b815481529060010190602001808311610c5657829003601f168201915b50505050508152602001600382018054610c8c906117e7565b80601f0160208091040260200160405190810160405280929190818152602001828054610cb8906117e7565b8015610d055780601f10610cda57610100808354040283529160200191610d05565b820191906000526020600020905b815481529060010190602001808311610ce857829003601f168201915b5050505050815260200160048201548152602001600582015481526020016006820154815260200160078201805480602002602001604051908101604052809291908181526020018280548015610d8557602002820191906000526020600020905b81546001600160a01b03168152600190910190602001808311610d67575b5050505050815260200160088201805480602002602001604051908101604052809291908181526020018280548015610ddd57602002820191906000526020600020905b815481526020019060010190808311610dc9575b5050505050815250509050919050565b610df561118e565b80600003610e1657604051634dfba02360e01b815260040160405180910390fd5b600155565b610e2361118e565b610e2d60006111bb565b565b60008281526004602090815260408083206001600160a01b03851684529091529020545b92915050565b60036020526000908152604090208054600182015460028301805492936001600160a01b0390921692610e8b906117e7565b80601f0160208091040260200160405190810160405280929190818152602001828054610eb7906117e7565b8015610f045780601f10610ed957610100808354040283529160200191610f04565b820191906000526020600020905b815481529060010190602001808311610ee757829003601f168201915b505050505090806003018054610f19906117e7565b80601f0160208091040260200160405190810160405280929190818152602001828054610f45906117e7565b8015610f925780601f10610f6757610100808354040283529160200191610f92565b820191906000526020600020905b815481529060010190602001808311610f7557829003601f168201915b5050505050908060040154908060050154908060060154905087565b60006001600254610fbf9190611a67565b905090565b610fcc61118e565b6001600160a01b038116610ffb57604051631e4fbdf760e01b8152600060048201526024015b60405180910390fd5b610a89816111bb565b6000828152600360205260409020805460609182918514611038576040516334c7fcb160e21b815260040160405180910390fd5b600881015460009067ffffffffffffffff811115611058576110586117d1565b604051908082528060200260200182016040528015611081578160200160208202803683370190505b50905060005b60088301548110156110f0576127108360080182815481106110ab576110ab611779565b9060005260206000200154876110c19190611a2e565b6110cb9190611a45565b8282815181106110dd576110dd611779565b6020908102919091010152600101611087565b5081600701818180548060200260200160405190810160405280929190818152602001828054801561114b57602002820191906000526020600020905b81546001600160a01b0316815260019091019060200180831161112d575b505050505091509350935050505b9250929050565b61116861120b565b60027f9b779b17422d0df92223018b32b4d1fa46e071723d6817e2486d003becc55f0055565b6000546001600160a01b03163314610e2d5760405163118cdaa760e01b8152336004820152602401610ff2565b600080546001600160a01b038381166001600160a01b0319831681178455604051919092169283917f8be0079c531659141344cd1fd0a4f28419497f9722a3daafe3b4186f6b6457e09190a35050565b7f9b779b17422d0df92223018b32b4d1fa46e071723d6817e2486d003becc55f0054600203610e2d57604051633ee5aeb560e01b815260040160405180910390fd5b8280548282559060005260206000209081019282156112a0579160200282015b828111156112a05781546001600160a01b0319166001600160a01b0384351617825560209092019160019091019061126d565b506112ac9291506112eb565b5090565b8280548282559060005260206000209081019282156112a0579160200282015b828111156112a05782358255916020019190600101906112d0565b5b808211156112ac57600081556001016112ec565b60008083601f84011261131257600080fd5b50813567ffffffffffffffff81111561132a57600080fd5b60208301915083602082850101111561115957600080fd5b60008083601f84011261135457600080fd5b50813567ffffffffffffffff81111561136c57600080fd5b6020830191508360208260051b850101111561115957600080fd5b600080600080600080600080600060a08a8c0312156113a557600080fd5b893567ffffffffffffffff8111156113bc57600080fd5b6113c88c828d01611300565b909a5098505060208a013567ffffffffffffffff8111156113e857600080fd5b6113f48c828d01611300565b90985096505060408a0135945060608a013567ffffffffffffffff81111561141b57600080fd5b6114278c828d01611342565b90955093505060808a013567ffffffffffffffff81111561144757600080fd5b6114538c828d01611342565b915080935050809150509295985092959850929598565b60006020828403121561147c57600080fd5b5035919050565b6000806040838503121561149657600080fd5b50508035926020909101359150565b6000815180845260005b818110156114cb576020818501810151868301820152016114af565b506000602082860101526020601f19601f83011685010191505092915050565b600081518084526020840193506020830160005b828110156115265781516001600160a01b03168652602095860195909101906001016114ff565b5093949350505050565b600081518084526020840193506020830160005b82811015611526578151865260209586019590910190600101611544565b60208152815160208201526000602083015161158960408401826001600160a01b03169052565b50604083015161012060608401526115a56101408401826114a5565b90506060840151601f198483030160808501526115c282826114a5565b915050608084015160a084015260a084015160c084015260c084015160e084015260e0840151601f19848303016101008501526115ff82826114eb565b915050610100840151601f198483030161012085015261161f8282611530565b95945050505050565b80356001600160a01b038116811461163f57600080fd5b919050565b6000806040838503121561165757600080fd5b8235915061166760208401611628565b90509250929050565b8781526001600160a01b038716602082015260e06040820181905260009061169a908301886114a5565b82810360608401526116ac81886114a5565b6080840196909652505060a081019290925260c090910152949350505050565b6000602082840312156116de57600080fd5b6116e782611628565b9392505050565b6040808252835190820181905260009060208501906060840190835b818110156117315783516001600160a01b031683526020938401939092019160010161170a565b50508381036020808601919091528551808352918101925085019060005b8181101561176d57825184526020938401939092019160010161174f565b50919695505050505050565b634e487b7160e01b600052603260045260246000fd5b634e487b7160e01b600052601160045260246000fd5b80820180821115610e5357610e5361178f565b6000600182016117ca576117ca61178f565b5060010190565b634e487b7160e01b600052604160045260246000fd5b600181811c908216806117fb57607f821691505b60208210810361181b57634e487b7160e01b600052602260045260246000fd5b50919050565b601f82111561186b57806000526020600020601f840160051c810160208510156118485750805b601f840160051c820191505b818110156118685760008155600101611854565b50505b505050565b67ffffffffffffffff831115611888576118886117d1565b61189c8361189683546117e7565b83611821565b6000601f8411600181146118d057600085156118b85750838201355b600019600387901b1c1916600186901b178355611868565b600083815260209020601f19861690835b8281101561190157868501358255602094850194600190920191016118e1565b508682101561191e5760001960f88860031b161c19848701351681555b505060018560011b0183555050505050565b81835281816020850137506000828201602090810191909152601f909101601f19169091010190565b60a08152600061196d60a083018b8d611930565b8281036020840152611980818a8c611930565b60408401899052838103606085015286815287915060200160005b878110156119c9576001600160a01b036119b484611628565b1682526020928301929091019060010161199b565b508381036080850152848152600091506001600160fb1b038511156119ed57600080fd5b8460051b80876020840137016020019c9b505050505050505050505050565b600060208284031215611a1e57600080fd5b815180151581146116e757600080fd5b8082028115828204841417610e5357610e5361178f565b600082611a6257634e487b7160e01b600052601260045260246000fd5b500490565b81810381811115610e5357610e5361178f56fea2646970667358221220cdb1308d29e27728f063526037c43d036598edbeeeb0a275be80066fda0c51ff64736f6c634300081c0033",
  "linkReferences": {},
  "deployedLinkReferences": {}
}