{
  "_format": "hh-sol-artifact-1",
  "contractName": "MicroTune",
  "sourceName": "contracts/MicroTune.sol",
  "abi": [
    {
      "inputs": [
        {
          "internalType": "address",
          "name": "_usdc",
          "type": "address"
        },
        {
          "internalType": "uint256",
          "name": "_initialPrice",
          "type": "uint256"
        }
      ],
      "stateMutability": "nonpayable",
      "type": "constructor"
    },
    {
      "inputs": [],
      "name": "DustTransferFailed",
      "type": "error"
    },
    {
      "inputs": [],
      "name": "EmptyTitle",
      "type": "error"
    },
    {
      "inputs": [],
      "name": "InvalidShare",
      "type": "error"
    },
    {
      "inputs": [],
      "name": "InvalidSharesTotal",
      "type": "error"
    },
    {
      "inputs": [],
      "name": "LengthMismatch",
      "type": "error"
    },
    {
      "inputs": [],
      "name": "NoBeneficiaries",
      "type": "error"
    },
    {
      "inputs": [],
      "name": "NotAuthorized",
      "type": "error"
    },
    {
      "inputs": [
        {
          "internalType": "address",
          "name": "owner",
          "type": "address"
        }
      ],
      "name": "OwnableInvalidOwner",
      "type": "error"
    },
    {
      "inputs": [
        {
          "internalType": "address",
          "name": "account",
          "type": "address"
        }
      ],
      "name": "OwnableUnauthorizedAccount",
      "type": "error"
    },
    {
      "inputs": [],
      "name": "PaymentFailed",
      "type": "error"
    },
    {
      "inputs": [],
      "name": "ReentrancyGuardReentrantCall",
      "type": "error"
    },
    {
      "inputs": [],
      "name": "SplitFailed",
      "type": "error"
    },
    {
      "inputs": [],
      "name": "UnknownTrack",
      "type": "error"
    },
    {
      "inputs": [],
      "name": "ZeroAddress",
      "type": "error"
    },
    {
      "inputs": [],
      "name": "ZeroPrice",
      "type": "error"
    },
    {
      "anonymous": false,
      "inputs": [
        {
          "indexed": true,
          "internalType": "uint256",
          "name": "trackId",
          "type": "uint256"
        },
        {
          "indexed": true,
          "internalType": "address",
          "name": "listener",
          "type": "address"
        },
        {
          "indexed": false,
          "internalType": "uint256",
          "name": "amount",
          "type": "uint256"
        },
        {
          "indexed": false,
          "internalType": "uint256",
          "name": "totalListens",
          "type": "uint256"
        }
      ],
      "name": "Listened",
      "type": "event"
    },
    {
      "anonymous": false,
      "inputs": [
        {
          "indexed": true,
          "internalType": "address",
          "name": "previousOwner",
          "type": "address"
        },
        {
          "indexed": true,
          "internalType": "address",
          "name": "newOwner",
          "type": "address"
        }
      ],
      "name": "OwnershipTransferred",
      "type": "event"
    },
    {
      "anonymous": false,
      "inputs": [
        {
          "indexed": true,
          "internalType": "uint256",
          "name": "trackId",
          "type": "uint256"
        },
        {
          "indexed": true,
          "internalType": "address",
          "name": "listener",
          "type": "address"
        },
        {
          "indexed": true,
          "internalType": "address",
          "name": "beneficiary",
          "type": "address"
        },
        {
          "indexed": false,
          "internalType": "uint256",
          "name": "amount",
          "type": "uint256"
        }
      ],
      "name": "PaymentSplit",
      "type": "event"
    },
    {
      "anonymous": false,
      "inputs": [
        {
          "indexed": true,
          "internalType": "uint256",
          "name": "trackId",
          "type": "uint256"
        },
        {
          "indexed": true,
          "internalType": "address",
          "name": "artist",
          "type": "address"
        },
        {
          "indexed": false,
          "internalType": "string",
          "name": "title",
          "type": "string"
        },
        {
          "indexed": false,
          "internalType": "string",
          "name": "metadataURI",
          "type": "string"
        },
        {
          "indexed": false,
          "internalType": "uint256",
          "name": "listenPrice",
          "type": "uint256"
        },
        {
          "indexed": false,
          "internalType": "address[]",
          "name": "beneficiaries",
          "type": "address[]"
        },
        {
          "indexed": false,
          "internalType": "uint256[]",
          "name": "shares",
          "type": "uint256[]"
        }
      ],
      "name": "TrackRegistered",
      "type": "event"
    },
    {
      "inputs": [],
      "name": "DEFAULT_PRICE",
      "outputs": [
        {
          "internalType": "uint256",
          "name": "",
          "type": "uint256"
        }
      ],
      "stateMutability": "view",
      "type": "function"
    },
    {
      "inputs": [],
      "name": "TOTAL_BPS",
      "outputs": [
        {
          "internalType": "uint256",
          "name": "",
          "type": "uint256"
        }
      ],
      "stateMutability": "view",
      "type": "function"
    },
    {
      "inputs": [],
      "name": "defaultPrice",
      "outputs": [
        {
          "internalType": "uint256",
          "name": "",
          "type": "uint256"
        }
      ],
      "stateMutability": "view",
      "type": "function"
    },
    {
      "inputs": [
        {
          "internalType": "uint256",
          "name": "",
          "type": "uint256"
        },
        {
          "internalType": "address",
          "name": "",
          "type": "address"
        }
      ],
      "name": "earnedByBeneficiary",
      "outputs": [
        {
          "internalType": "uint256",
          "name": "",
          "type": "uint256"
        }
      ],
      "stateMutability": "view",
      "type": "function"
    },
    {
      "inputs": [
        {
          "internalType": "uint256",
          "name": "trackId",
          "type": "uint256"
        },
        {
          "internalType": "address",
          "name": "beneficiary",
          "type": "address"
        }
      ],
      "name": "getEarned",
      "outputs": [
        {
          "internalType": "uint256",
          "name": "",
          "type": "uint256"
        }
      ],
      "stateMutability": "view",
      "type": "function"
    },
    {
      "inputs": [
        {
          "internalType": "uint256",
          "name": "trackId",
          "type": "uint256"
        },
        {
          "internalType": "uint256",
          "name": "amount",
          "type": "uint256"
        }
      ],
      "name": "getExpectedSplits",
      "outputs": [
        {
          "internalType": "address[]",
          "name": "",
          "type": "address[]"
        },
        {
          "internalType": "uint256[]",
          "name": "",
          "type": "uint256[]"
        }
      ],
      "stateMutability": "view",
      "type": "function"
    },
    {
      "inputs": [
        {
          "internalType": "uint256",
          "name": "trackId",
          "type": "uint256"
        }
      ],
      "name": "getTrack",
      "outputs": [
        {
          "components": [
            {
              "internalType": "uint256",
              "name": "id",
              "type": "uint256"
            },
            {
              "internalType": "address",
              "name": "artist",
              "type": "address"
            },
            {
              "internalType": "string",
              "name": "title",
              "type": "string"
            },
            {
              "internalType": "string",
              "name": "metadataURI",
              "type": "string"
            },
            {
              "internalType": "uint256",
              "name": "listenPrice",
              "type": "uint256"
            },
            {
              "internalType": "uint256",
              "name": "totalListens",
              "type": "uint256"
            },
            {
              "internalType": "uint256",
              "name": "totalRevenue",
              "type": "uint256"
            },
            {
              "internalType": "address[]",
              "name": "beneficiaries",
              "type": "address[]"
            },
            {
              "internalType": "uint256[]",
              "name": "shares",
              "type": "uint256[]"
            }
          ],
          "internalType": "struct MicroTune.Track",
          "name": "",
          "type": "tuple"
        }
      ],
      "stateMutability": "view",
      "type": "function"
    },
    {
      "inputs": [],
      "name": "getTrackCount",
      "outputs": [
        {
          "internalType": "uint256",
          "name": "",
          "type": "uint256"
        }
      ],
      "stateMutability": "view",
      "type": "function"
    },
    {
      "inputs": [
        {
          "internalType": "uint256",
          "name": "trackId",
          "type": "uint256"
        }
      ],
      "name": "listen",
      "outputs": [],
      "stateMutability": "nonpayable",
      "type": "function"
    },
    {
      "inputs": [],
      "name": "nextTrackId",
      "outputs": [
        {
          "internalType": "uint256",
          "name": "",
          "type": "uint256"
        }
      ],
      "stateMutability": "view",
      "type": "function"
    },
    {
      "inputs": [],
      "name": "owner",
      "outputs": [
        {
          "internalType": "address",
          "name": "",
          "type": "address"
        }
      ],
      "stateMutability": "view",
      "type": "function"
    },
    {
      "inputs": [
        {
          "internalType": "string",
          "name": "title",
          "type": "string"
        },
        {
          "internalType": "string",
          "name": "metadataURI",
          "type": "string"
        },
        {
          "internalType": "uint256",
          "name": "listenPrice",
          "type": "uint256"
        },
        {
          "internalType": "address[]",
          "name": "beneficiaries",
          "type": "address[]"
        },
        {
          "internalType": "uint256[]",
          "name": "shares",
          "type": "uint256[]"
        }
      ],
      "name": "registerTrack",
      "outputs": [
        {
          "internalType": "uint256",
          "name": "trackId",
          "type": "uint256"
        }
      ],
      "stateMutability": "nonpayable",
      "type": "function"
    },
    {
      "inputs": [],
      "name": "renounceOwnership",
      "outputs": [],
      "stateMutability": "nonpayable",
      "type": "function"
    },
    {
      "inputs": [
        {
          "internalType": "uint256",
          "name": "newPrice",
          "type": "uint256"
        }
      ],
      "name": "setDefaultPrice",
      "outputs": [],
      "stateMutability": "nonpayable",
      "type": "function"
    },
    {
      "inputs": [
        {
          "internalType": "uint256",
          "name": "trackId",
          "type": "uint256"
        },
        {
          "internalType": "uint256",
          "name": "newPrice",
          "type": "uint256"
        }
      ],
      "name": "setTrackPrice",
      "outputs": [],
      "stateMutability": "nonpayable",
      "type": "function"
    },
    {
      "inputs": [
        {
          "internalType": "uint256",
          "name": "",
          "type": "uint256"
        }
      ],
      "name": "tracks",
      "outputs": [
        {
          "internalType": "uint256",
          "name": "id",
          "type": "uint256"
        },
        {
          "internalType": "address",
          "name": "artist",
          "type": "address"
        },
        {
          "internalType": "string",
          "name": "title",
          "type": "string"
        },
        {
          "internalType": "string",
          "name": "metadataURI",
          "type": "string"
        },
        {
          "internalType": "uint256",
          "name": "listenPrice",
          "type": "uint256"
        },
        {
          "internalType": "uint256",
          "name": "totalListens",
          "type": "uint256"
        },
        {
          "internalType": "uint256",
          "name": "totalRevenue",
          "type": "uint256"
        }
      ],
      "stateMutability": "view",
      "type": "function"
    },
    {
      "inputs": [
        {
          "internalType": "address",
          "name": "newOwner",
          "type": "address"
        }
      ],
      "name": "transferOwnership",
      "outputs": [],
      "stateMutability": "nonpayable",
      "type": "function"
    },
    {
      "inputs": [],
      "name": "usdc",
      "outputs": [
        {
          "internalType": "contract IERC20",
          "name": "",
          "type": "address"
        }
      ],
      "stateMutability": "view",
      "type": "function"
    }
  ],
  "bytecode": "0x60a060405234801561001057600080fd5b50604051611c3b380380611c3b83398101604081905261002f91610126565b60017f9b779b17422d0df92223018b32b4d1fa46e071723d6817e2486d003becc55f0055338061007957604051631e4fbdf760e01b81526000600482015260240160405180910390fd5b610082816100d6565b506001600160a01b0382166100aa5760405163d92e233d60e01b815260040160405180910390fd5b6001600160a01b038216608052806100c45761c3506100c6565b805b6001908155600255506101609050565b600080546001600160a01b038381166001600160a01b0319831681178455604051919092169283917f8be0079c531659141344cd1fd0a4f28419497f9722a3daafe3b4186f6b6457e09190a35050565b6000806040838503121561013957600080fd5b82516001600160a01b038116811461015057600080fd5b6020939093015192949293505050565b608051611aab610190600039600081816101770152818161057c015281816107c4015261093f0152611aab6000f3fe608060405234801561001057600080fd5b50600436106101165760003560e01c80638da5cb5b116100a2578063b9e78bc411610071578063b9e78bc41461026a578063d3cd52bc14610272578063e69e04b31461027b578063f2fde38b14610284578063fab853e91461029757600080fd5b80638da5cb5b146101ff57806394ca0f3e14610210578063a2e345861461023b578063a72024c61461026157600080fd5b80633e413bee116100e95780633e413bee14610172578063629058ca146101b15780636d3c7ec5146101d1578063715018a6146101e457806376d1e7b0146101ec57600080fd5b80630f874bd81461011b5780631b6c743b146101415780631e5f7e721461014a5780633031db1a1461015f575b600080fd5b61012e610129366004611382565b6102b8565b6040519081526020015b60405180910390f35b61012e61c35081565b61015d610158366004611465565b6104f5565b005b61015d61016d36600461147e565b610a87565b6101997f000000000000000000000000000000000000000000000000000000000000000081565b6040516001600160a01b039091168152602001610138565b6101c46101bf366004611465565b610b24565b604051610138919061155d565b61015d6101df366004611465565b610de8565b61015d610e16565b61012e6101fa36600461163f565b610e2a565b6000546001600160a01b0316610199565b61012e61021e36600461163f565b600460209081526000928352604080842090915290825290205481565b61024e610249366004611465565b610e54565b604051610138979695949392919061166b565b61012e60025481565b61012e610fa9565b61012e61271081565b61012e60015481565b61015d6102923660046116c7565b610fbf565b6102aa6102a536600461147e565b610fff565b6040516101389291906116e9565b60008881036102da576040516352ddcdef60e11b815260040160405180910390fd5b60008490036102fc57604051630a6e387f60e31b815260040160405180910390fd5b83821461031f576040516001621398b960e31b0319815260040160405180910390fd5b6000805b838110156103e25784848281811061033d5761033d611774565b905060200201356000036103645760405163040357dd60e21b815260040160405180910390fd5b600087878381811061037857610378611774565b905060200201602081019061038d91906116c7565b6001600160a01b0316036103b45760405163d92e233d60e01b815260040160405180910390fd5b8484828181106103c6576103c6611774565b90506020020135826103d891906117a0565b9150600101610323565b506127108114610405576040516331ee758760e11b815260040160405180910390fd5b866000036104135760015496505b60028054906000610423836117b3565b9091555060008181526003602052604090208181556001810180546001600160a01b031916331790559092506002810161045e8c8e8361186b565b506003810161046e8a8c8361186b565b5060048101889055610484600782018888611248565b506104936008820186866112ab565b50336001600160a01b0316837fbba72581d25a6e821ec26e5b24eaea0daaec9a6fc18aaff52ec6ff15c931ef4d8e8e8e8e8e8e8e8e8e6040516104de99989796959493929190611954565b60405180910390a350509998505050505050505050565b6104fd61115b565b60008181526003602052604090208054821461052c576040516334c7fcb160e21b815260040160405180910390fd5b806004015460000361055157604051634dfba02360e01b815260040160405180910390fd5b6004818101546040516323b872dd60e01b8152339281019290925230602483015260448201819052907f00000000000000000000000000000000000000000000000000000000000000006001600160a01b0316906323b872dd906064016020604051808303816000875af11580156105cd573d6000803e3d6000fd5b505050506040513d601f19601f820116820180604052508101906105f19190611a07565b61060e576040516307a4ced160e51b815260040160405180910390fd5b600182600501600082825461062391906117a0565b925050819055508082600601600082825461063e91906117a0565b9091555060009050805b600784015481101561071857600061271085600801838154811061066e5761066e611774565b9060005260206000200154856106849190611a29565b61068e9190611a40565b90508060000361069e5750610710565b6106a881846117a0565b9250806004600088815260200190815260200160002060008760070185815481106106d5576106d5611774565b60009182526020808320909101546001600160a01b03168352820192909252604001812080549091906107099084906117a0565b9091555050505b600101610648565b5060006107258284611a62565b9050801561076957600085815260046020908152604080832060018801546001600160a01b03168452909152812080548392906107639084906117a0565b90915550505b60005b600785015481101561090d57600061271086600801838154811061079257610792611774565b9060005260206000200154866107a89190611a29565b6107b29190611a40565b9050806000036107c25750610905565b7f00000000000000000000000000000000000000000000000000000000000000006001600160a01b031663a9059cbb87600701848154811061080657610806611774565b60009182526020909120015460405160e083901b6001600160e01b03191681526001600160a01b039091166004820152602481018490526044016020604051808303816000875af115801561085f573d6000803e3d6000fd5b505050506040513d601f19601f820116820180604052508101906108839190611a07565b6108a05760405163870ecf4160e01b815260040160405180910390fd5b8560070182815481106108b5576108b5611774565b600091825260209182902001546040518381526001600160a01b039091169133918a917fcf5531f564fe15e1f305fc5d71bfea51b43d9f9d454ffe51a1d8ca4878e77edd910160405180910390a4505b60010161076c565b508015610a1457600184015460405163a9059cbb60e01b81526001600160a01b039182166004820152602481018390527f00000000000000000000000000000000000000000000000000000000000000009091169063a9059cbb906044016020604051808303816000875af115801561098a573d6000803e3d6000fd5b505050506040513d601f19601f820116820180604052508101906109ae9190611a07565b6109cb57604051630c72ffad60e21b815260040160405180910390fd5b60018401546040518281526001600160a01b0390911690339087907fcf5531f564fe15e1f305fc5d71bfea51b43d9f9d454ffe51a1d8ca4878e77edd9060200160405180910390a45b6005840154604080518581526020810192909252339187917ff0f215f0a686d556f2a9d86a80cd7aff8d5c649269730e690e147a10e3c06fe7910160405180910390a350505050610a8460017f9b779b17422d0df92223018b32b4d1fa46e071723d6817e2486d003becc55f0055565b50565b600082815260036020526040902080548314610ab6576040516334c7fcb160e21b815260040160405180910390fd5b60018101546001600160a01b03163314801590610ade57506000546001600160a01b03163314155b15610afc5760405163ea8e4eb560e01b815260040160405180910390fd5b81600003610b1d57604051634dfba02360e01b815260040160405180910390fd5b6004015550565b610b7c6040518061012001604052806000815260200160006001600160a01b03168152602001606081526020016060815260200160008152602001600081526020016000815260200160608152602001606081525090565b6000828152600360205260409020548214610baa576040516334c7fcb160e21b815260040160405180910390fd5b6000828152600360209081526040918290208251610120810184528154815260018201546001600160a01b0316928101929092526002810180549293919291840191610bf5906117e2565b80601f0160208091040260200160405190810160405280929190818152602001828054610c21906117e2565b8015610c6e5780601f10610c4357610100808354040283529160200191610c6e565b820191906000526020600020905b815481529060010190602001808311610c5157829003601f168201915b50505050508152602001600382018054610c87906117e2565b80601f0160208091040260200160405190810160405280929190818152602001828054610cb3906117e2565b8015610d005780601f10610cd557610100808354040283529160200191610d00565b820191906000526020600020905b815481529060010190602001808311610ce357829003601f168201915b5050505050815260200160048201548152602001600582015481526020016006820154815260200160078201805480602002602001604051908101604052809291908181526020018280548015610d8057602002820191906000526020600020905b81546001600160a01b03168152600190910190602001808311610d62575b5050505050815260200160088201805480602002602001604051908101604052809291908181526020018280548015610dd857602002820191906000526020600020905b815481526020019060010190808311610dc4575b5050505050815250509050919050565b610df0611189565b80600003610e1157604051634dfba02360e01b815260040160405180910390fd5b600155565b610e1e611189565b610e2860006111b6565b565b60008281526004602090815260408083206001600160a01b03851684529091529020545b92915050565b60036020526000908152604090208054600182015460028301805492936001600160a01b0390921692610e86906117e2565b80601f0160208091040260200160405190810160405280929190818152602001828054610eb2906117e2565b8015610eff5780601f10610ed457610100808354040283529160200191610eff565b820191906000526020600020905b815481529060010190602001808311610ee257829003601f168201915b505050505090806003018054610f14906117e2565b80601f0160208091040260200160405190810160405280929190818152602001828054610f40906117e2565b8015610f8d5780601f10610f6257610100808354040283529160200191610f8d565b820191906000526020600020905b815481529060010190602001808311610f7057829003601f168201915b5050505050908060040154908060050154908060060154905087565b60006001600254610fba9190611a62565b905090565b610fc7611189565b6001600160a01b038116610ff657604051631e4fbdf760e01b8152600060048201526024015b60405180910390fd5b610a84816111b6565b6000828152600360205260409020805460609182918514611033576040516334c7fcb160e21b815260040160405180910390fd5b600881015460009067ffffffffffffffff811115611053576110536117cc565b60405190808252806020026020018201604052801561107c578160200160208202803683370190505b50905060005b60088301548110156110eb576127108360080182815481106110a6576110a6611774565b9060005260206000200154876110bc9190611a29565b6110c69190611a40565b8282815181106110d8576110d8611774565b6020908102919091010152600101611082565b5081600701818180548060200260200160405190810160405280929190818152602001828054801561114657602002820191906000526020600020905b81546001600160a01b03168152600190910190602001808311611128575b505050505091509350935050505b9250929050565b611163611206565b60027f9b779b17422d0df92223018b32b4d1fa46e071723d6817e2486d003becc55f0055565b6000546001600160a01b03163314610e285760405163118cdaa760e01b8152336004820152602401610fed565b600080546001600160a01b038381166001600160a01b0319831681178455604051919092169283917f8be0079c531659141344cd1fd0a4f28419497f9722a3daafe3b4186f6b6457e09190a35050565b7f9b779b17422d0df92223018b32b4d1fa46e071723d6817e2486d003becc55f0054600203610e2857604051633ee5aeb560e01b815260040160405180910390fd5b82805482825590600052602060002090810192821561129b579160200282015b8281111561129b5781546001600160a01b0319166001600160a01b03843516178255602090920191600190910190611268565b506112a79291506112e6565b5090565b82805482825590600052602060002090810192821561129b579160200282015b8281111561129b5782358255916020019190600101906112cb565b5b808211156112a757600081556001016112e7565b60008083601f84011261130d57600080fd5b50813567ffffffffffffffff81111561132557600080fd5b60208301915083602082850101111561115457600080fd5b60008083601f84011261134f57600080fd5b50813567ffffffffffffffff81111561136757600080fd5b6020830191508360208260051b850101111561115457600080fd5b600080600080600080600080600060a08a8c0312156113a057600080fd5b893567ffffffffffffffff8111156113b757600080fd5b6113c38c828d016112fb565b909a5098505060208a013567ffffffffffffffff8111156113e357600080fd5b6113ef8c828d016112fb565b90985096505060408a0135945060608a013567ffffffffffffffff81111561141657600080fd5b6114228c828d0161133d565b90955093505060808a013567ffffffffffffffff81111561144257600080fd5b61144e8c828d0161133d565b915080935050809150509295985092959850929598565b60006020828403121561147757600080fd5b5035919050565b6000806040838503121561149157600080fd5b50508035926020909101359150565b6000815180845260005b818110156114c6576020818501810151868301820152016114aa565b506000602082860101526020601f19601f83011685010191505092915050565b600081518084526020840193506020830160005b828110156115215781516001600160a01b03168652602095860195909101906001016114fa565b5093949350505050565b600081518084526020840193506020830160005b8281101561152157815186526020958601959091019060010161153f565b60208152815160208201526000602083015161158460408401826001600160a01b03169052565b50604083015161012060608401526115a06101408401826114a0565b90506060840151601f198483030160808501526115bd82826114a0565b915050608084015160a084015260a084015160c084015260c084015160e084015260e0840151601f19848303016101008501526115fa82826114e6565b915050610100840151601f198483030161012085015261161a828261152b565b95945050505050565b80356001600160a01b038116811461163a57600080fd5b919050565b6000806040838503121561165257600080fd5b8235915061166260208401611623565b90509250929050565b8781526001600160a01b038716602082015260e060408201819052600090611695908301886114a0565b82810360608401526116a781886114a0565b6080840196909652505060a081019290925260c090910152949350505050565b6000602082840312156116d957600080fd5b6116e282611623565b9392505050565b6040808252835190820181905260009060208501906060840190835b8181101561172c5783516001600160a01b0316835260209384019390920191600101611705565b50508381036020808601919091528551808352918101925085019060005b8181101561176857825184526020938401939092019160010161174a565b50919695505050505050565b634e487b7160e01b600052603260045260246000fd5b634e487b7160e01b600052601160045260246000fd5b80820180821115610e4e57610e4e61178a565b6000600182016117c5576117c561178a565b5060010190565b634e487b7160e01b600052604160045260246000fd5b600181811c908216806117f657607f821691505b60208210810361181657634e487b7160e01b600052602260045260246000fd5b50919050565b601f82111561186657806000526020600020601f840160051c810160208510156118435750805b601f840160051c820191505b81811015611863576000815560010161184f565b50505b505050565b67ffffffffffffffff831115611883576118836117cc565b6118978361189183546117e2565b8361181c565b6000601f8411600181146118cb57600085156118b35750838201355b600019600387901b1c1916600186901b178355611863565b600083815260209020601f19861690835b828110156118fc57868501358255602094850194600190920191016118dc565b50868210156119195760001960f88860031b161c19848701351681555b505060018560011b0183555050505050565b81835281816020850137506000828201602090810191909152601f909101601f19169091010190565b60a08152600061196860a083018b8d61192b565b828103602084015261197b818a8c61192b565b60408401899052838103606085015286815287915060200160005b878110156119c4576001600160a01b036119af84611623565b16825260209283019290910190600101611996565b508381036080850152848152600091506001600160fb1b038511156119e857600080fd5b8460051b80876020840137016020019c9b505050505050505050505050565b600060208284031215611a1957600080fd5b815180151581146116e257600080fd5b8082028115828204841417610e4e57610e4e61178a565b600082611a5d57634e487b7160e01b600052601260045260246000fd5b500490565b81810381811115610e4e57610e4e61178a56fea2646970667358221220b6228580b41e2df34d9f2f1b8f537118138488fdd4e5baaf9ecf46b95bc3a98f64736f6c634300081c0033",
  "linkReferences": {},
  "deployedLinkReferences": {}
}